{
    "contractName": "PickUpLines",
    "abi": [
        {
            "inputs": [],
            "stateMutability": "payable",
            "type": "constructor"
        },
        {
            "anonymous": false,
            "inputs": [
                {
                    "indexed": true,
                    "internalType": "address",
                    "name": "from",
                    "type": "address"
                },
                {
                    "indexed": false,
                    "internalType": "uint256",
                    "name": "timestamp",
                    "type": "uint256"
                },
                {
                    "indexed": false,
                    "internalType": "string",
                    "name": "line",
                    "type": "string"
                }
            ],
            "name": "NewPickUpLine",
            "type": "event"
        },
        {
            "anonymous": false,
            "inputs": [
                {
                    "indexed": true,
                    "internalType": "address",
                    "name": "from",
                    "type": "address"
                },
                {
                    "indexed": false,
                    "internalType": "uint256",
                    "name": "timestamp",
                    "type": "uint256"
                },
                {
                    "indexed": true,
                    "internalType": "address",
                    "name": "writer",
                    "type": "address"
                }
            ],
            "name": "TransferMoney",
            "type": "event"
        },
        {
            "anonymous": false,
            "inputs": [
                {
                    "indexed": true,
                    "internalType": "address",
                    "name": "from",
                    "type": "address"
                },
                {
                    "indexed": false,
                    "internalType": "uint256",
                    "name": "timestamp",
                    "type": "uint256"
                },
                {
                    "indexed": true,
                    "internalType": "address",
                    "name": "writer",
                    "type": "address"
                },
                {
                    "indexed": false,
                    "internalType": "uint256",
                    "name": "",
                    "type": "uint256"
                }
            ],
            "name": "UpdateLikes",
            "type": "event"
        },
        {
            "inputs": [
                {
                    "internalType": "address",
                    "name": "pickUpLineWriter",
                    "type": "address"
                }
            ],
            "name": "addLikes",
            "outputs": [],
            "stateMutability": "nonpayable",
            "type": "function"
        },
        {
            "inputs": [],
            "name": "checkIfUserLiked",
            "outputs": [
                {
                    "internalType": "bool",
                    "name": "",
                    "type": "bool"
                }
            ],
            "stateMutability": "view",
            "type": "function"
        },
        {
            "inputs": [],
            "name": "checkIfUserpickedUp",
            "outputs": [
                {
                    "internalType": "bool",
                    "name": "",
                    "type": "bool"
                }
            ],
            "stateMutability": "view",
            "type": "function"
        },
        {
            "inputs": [],
            "name": "getAllLines",
            "outputs": [
                {
                    "components": [
                        {
                            "internalType": "address",
                            "name": "writer",
                            "type": "address"
                        },
                        {
                            "internalType": "string",
                            "name": "line",
                            "type": "string"
                        },
                        {
                            "internalType": "uint256",
                            "name": "timestamp",
                            "type": "uint256"
                        },
                        {
                            "internalType": "uint256",
                            "name": "totalLikes",
                            "type": "uint256"
                        }
                    ],
                    "internalType": "struct PickUpLines.ResultLines[]",
                    "name": "",
                    "type": "tuple[]"
                }
            ],
            "stateMutability": "view",
            "type": "function"
        },
        {
            "inputs": [
                {
                    "internalType": "string",
                    "name": "_line",
                    "type": "string"
                }
            ],
            "name": "newLine",
            "outputs": [],
            "stateMutability": "nonpayable",
            "type": "function"
        },
        {
            "inputs": [
                {
                    "internalType": "address",
                    "name": "winner",
                    "type": "address"
                }
            ],
            "name": "transferPrize",
            "outputs": [],
            "stateMutability": "nonpayable",
            "type": "function"
        }
    ],
    "bytecode": "60e0604052602d608081815261002491610a9860a03961004260201b6105101760201c565b606461003044426100ad565b61003a91906100d4565b600055610144565b6100898160405160240161005691906100f6565b60408051601f198184030181529190526020810180516001600160e01b0390811663104c13eb60e21b1790915261008c16565b50565b80516a636f6e736f6c652e6c6f67602083016000808483855afa5050505050565b808201808211156100ce57634e487b7160e01b600052601160045260246000fd5b92915050565b6000826100f157634e487b7160e01b600052601260045260246000fd5b500690565b600060208083528351808285015260005b8181101561012357858101830151858201604001528201610107565b506000604082860101526040601f19601f8301168501019250505092915050565b610945806101536000396000f3fe608060405234801561001057600080fd5b50600436106100625760003560e01c80633f799e4914610067578063742398711461007c578063770b5eaf1461009a57806380523a86146100ad57806395a96b90146100c5578063ed07cd6c146100cd575b600080fd5b61007a610075366004610577565b6100e0565b005b6100846101dc565b60405161009191906105ed565b60405180910390f35b61007a6100a8366004610699565b610289565b6100b561044b565b6040519015158152602001610091565b6100b561046e565b61007a6100db366004610577565b610490565b3360009081526003602052604090205460ff16156101585760405162461bcd60e51b815260206004820152602a60248201527f4974207365656d7320796f7527766520616c72656164792043617374656420796044820152696f757220766f74652e2160b01b60648201526084015b60405180910390fd5b6001600160a01b0381166000908152600460205260408120805460019290610181908490610760565b90915550506001600160a01b0381166000818152600460209081526040918290205482514281529182015233917ff1c588c3a74b61077eb072e71789725c48c7f93d0332b8b79ff9ea6b7d744370910160405180910390a350565b60055460609060009067ffffffffffffffff8111156101fd576101fd610683565b60405190808252806020026020018201604052801561026257816020015b61024f604051806080016040528060006001600160a01b031681526020016060815260200160008152602001600081525090565b81526020019060019003908161021b5790505b50905060005b600554811015610284578061027c81610779565b915050610268565b505090565b3360009081526002602052604090205460ff16156103355760405162461bcd60e51b815260206004820152605a60248201527f4974207365656d7320796f7527766520706f737465642061206c696e6520616c60448201527f72656164792e20576520646f6e277420646f2072657065617473207768656e2060648201527f697420636f6d657320746f207069636b207570206c696e657321000000000000608482015260a40161014f565b604080516060810182523381526020810183815242928201929092526005805460018101825560009190915281517f036b6384b5eca791c62761152d0c79bb0604c104a5fb6f4eb0703f3154bb3db0600390920291820180546001600160a01b0319166001600160a01b0390921691909117815592519192917f036b6384b5eca791c62761152d0c79bb0604c104a5fb6f4eb0703f3154bb3db1909101906103dd908261081b565b506040918201516002918201553360008181526020928352838120805460ff1916600117905560049092528282209190915590517fe31c1c5d2435fc0b08177399b00a58890a62dc1e316b2e750a9142d65600508e9061044090429085906108db565b60405180910390a250565b33600090815260026020526040812054819060ff1615610469575060015b919050565b33600090815260036020526040812054819060ff161561046957506001919050565b60405181906001600160a01b03821690600090670de0b6b3a76400009082818181858883f193505050501580156104cb573d6000803e3d6000fd5b506040514281526001600160a01b0383169033907fed7d0a91587e7e60cce787395a2e4450527cfc569ac35a99caf36ffa2bf3a7dd9060200160405180910390a35050565b6105538160405160240161052491906108fc565b60408051601f198184030181529190526020810180516001600160e01b031663104c13eb60e21b179052610556565b50565b80516a636f6e736f6c652e6c6f67602083016000808483855afa5050505050565b60006020828403121561058957600080fd5b81356001600160a01b03811681146105a057600080fd5b9392505050565b6000815180845260005b818110156105cd576020818501810151868301820152016105b1565b506000602082860101526020601f19601f83011685010191505092915050565b60006020808301818452808551808352604092508286019150828160051b87010184880160005b8381101561067557888303603f19018552815180516001600160a01b031684528781015160808986018190529061064d828701826105a7565b838a0151878b0152606093840151939096019290925250509386019390860190600101610614565b509098975050505050505050565b634e487b7160e01b600052604160045260246000fd5b6000602082840312156106ab57600080fd5b813567ffffffffffffffff808211156106c357600080fd5b818401915084601f8301126106d757600080fd5b8135818111156106e9576106e9610683565b604051601f8201601f19908116603f0116810190838211818310171561071157610711610683565b8160405282815287602084870101111561072a57600080fd5b826020860160208301376000928101602001929092525095945050505050565b634e487b7160e01b600052601160045260246000fd5b808201808211156107735761077361074a565b92915050565b60006001820161078b5761078b61074a565b5060010190565b600181811c908216806107a657607f821691505b6020821081036107c657634e487b7160e01b600052602260045260246000fd5b50919050565b601f82111561081657600081815260208120601f850160051c810160208610156107f35750805b601f850160051c820191505b81811015610812578281556001016107ff565b5050505b505050565b815167ffffffffffffffff81111561083557610835610683565b610849816108438454610792565b846107cc565b602080601f83116001811461087e57600084156108665750858301515b600019600386901b1c1916600185901b178555610812565b600085815260208120601f198616915b828110156108ad5788860151825594840194600190910190840161088e565b50858210156108cb5787850151600019600388901b60f8161c191681555b5050505050600190811b01905550565b8281526040602082015260006108f460408301846105a7565b949350505050565b6020815260006105a060208301846105a756fea2646970667358221220d610348e6cbc7a3750ff31e7878ecee6f682236e7e5f04aa59f209add1e9caf664736f6c634300081000334920616d2074686520436865657379205069636b5570204c696e65732720736d61727420636f6e747261637421",
    "sourcePath": "c:/Web3/Web3BE/PickUpLines-Blockchain/contracts/PickUpLines.sol",
    "compiler": {
        "name": "solc",
        "version": "0.8.16+commit.07a7930e"
    },
    "functionHashes": {
        "addLikes(address)": "3f799e49",
        "checkIfUserLiked()": "95a96b90",
        "checkIfUserpickedUp()": "80523a86",
        "getAllLines()": "74239871",
        "newLine(string)": "770b5eaf",
        "transferPrize(address)": "ed07cd6c"
    },
    "gasEstimates": {
        "creation": {
            "codeDepositCost": "474600",
            "executionCost": "infinite",
            "totalCost": "infinite"
        },
        "external": {
            "addLikes(address)": "31112",
            "checkIfUserLiked()": "2485",
            "checkIfUserpickedUp()": "2464",
            "getAllLines()": "infinite",
            "newLine(string)": "infinite",
            "transferPrize(address)": "infinite"
        }
    }
}