{
  "_format": "hh-sol-artifact-1",
  "contractName": "PickUpLines",
  "sourceName": "contracts/PickUpLines.sol",
  "abi": [
    {
      "inputs": [],
      "stateMutability": "payable",
      "type": "constructor"
    },
    {
      "anonymous": false,
      "inputs": [
        {
          "indexed": true,
          "internalType": "address",
          "name": "from",
          "type": "address"
        },
        {
          "indexed": false,
          "internalType": "uint256",
          "name": "timestamp",
          "type": "uint256"
        },
        {
          "indexed": false,
          "internalType": "string",
          "name": "line",
          "type": "string"
        }
      ],
      "name": "NewPickUpLine",
      "type": "event"
    },
    {
      "anonymous": false,
      "inputs": [
        {
          "indexed": true,
          "internalType": "address",
          "name": "from",
          "type": "address"
        },
        {
          "indexed": false,
          "internalType": "uint256",
          "name": "timestamp",
          "type": "uint256"
        },
        {
          "indexed": true,
          "internalType": "address",
          "name": "writer",
          "type": "address"
        }
      ],
      "name": "UpdateLikes",
      "type": "event"
    },
    {
      "inputs": [
        {
          "internalType": "address",
          "name": "pickUpLineWriter",
          "type": "address"
        }
      ],
      "name": "addLikes",
      "outputs": [],
      "stateMutability": "nonpayable",
      "type": "function"
    },
    {
      "inputs": [],
      "name": "getAllLines",
      "outputs": [
        {
          "components": [
            {
              "internalType": "address",
              "name": "writer",
              "type": "address"
            },
            {
              "internalType": "string",
              "name": "line",
              "type": "string"
            },
            {
              "internalType": "uint256",
              "name": "timestamp",
              "type": "uint256"
            }
          ],
          "internalType": "struct PickUpLines.PickUpLine[]",
          "name": "",
          "type": "tuple[]"
        }
      ],
      "stateMutability": "view",
      "type": "function"
    },
    {
      "inputs": [],
      "name": "getTotalLines",
      "outputs": [
        {
          "internalType": "uint256",
          "name": "",
          "type": "uint256"
        }
      ],
      "stateMutability": "view",
      "type": "function"
    },
    {
      "inputs": [
        {
          "internalType": "string",
          "name": "_line",
          "type": "string"
        }
      ],
      "name": "newLine",
      "outputs": [],
      "stateMutability": "nonpayable",
      "type": "function"
    }
  ],
  "bytecode": "0x6080604052620000336040518060600160405280602d815260200162001214602d91396200005b60201b6200060f1760201c565b60644442620000439190620001a8565b6200004f919062000245565b600081905550620002ec565b620000fb8160405160240162000072919062000168565b6040516020818303038152906040527f41304fac000000000000000000000000000000000000000000000000000000007bffffffffffffffffffffffffffffffffffffffffffffffffffffffff19166020820180517bffffffffffffffffffffffffffffffffffffffffffffffffffffffff8381831617835250505050620000fe60201b60201c565b50565b60008151905060006a636f6e736f6c652e6c6f679050602083016000808483855afa5050505050565b600062000134826200018c565b62000140818562000197565b9350620001528185602086016200020f565b6200015d81620002db565b840191505092915050565b6000602082019050818103600083015262000184818462000127565b905092915050565b600081519050919050565b600082825260208201905092915050565b6000620001b58262000205565b9150620001c28362000205565b9250827fffffffffffffffffffffffffffffffffffffffffffffffffffffffffffffffff03821115620001fa57620001f96200027d565b5b828201905092915050565b6000819050919050565b60005b838110156200022f57808201518184015260208101905062000212565b838111156200023f576000848401525b50505050565b6000620002528262000205565b91506200025f8362000205565b925082620002725762000271620002ac565b5b828206905092915050565b7f4e487b7100000000000000000000000000000000000000000000000000000000600052601160045260246000fd5b7f4e487b7100000000000000000000000000000000000000000000000000000000600052601260045260246000fd5b6000601f19601f8301169050919050565b610f1880620002fc6000396000f3fe608060405234801561001057600080fd5b506004361061004c5760003560e01c80633c1ffab1146100515780633f799e491461006f578063742398711461008b578063770b5eaf146100a9575b600080fd5b6100596100c5565b6040516100669190610c15565b60405180910390f35b6100896004803603810190610084919061088d565b610110565b005b61009361025c565b6040516100a09190610b61565b60405180910390f35b6100c360048036038101906100be91906108b6565b6103ad565b005b60006101086040518060400160405280601d81526020017f5765206861766520257320746f74616c205069636b55704c696e65732e0000008152506001546106a8565b600154905090565b600460003373ffffffffffffffffffffffffffffffffffffffff1673ffffffffffffffffffffffffffffffffffffffff16815260200190815260200160002060009054906101000a900460ff161561019d576040517f08c379a000000000000000000000000000000000000000000000000000000000815260040161019490610bf5565b60405180910390fd5b6001600560008373ffffffffffffffffffffffffffffffffffffffff1673ffffffffffffffffffffffffffffffffffffffff16815260200190815260200160002060008282546101ed9190610d27565b925050819055508073ffffffffffffffffffffffffffffffffffffffff163373ffffffffffffffffffffffffffffffffffffffff167f6803ba8eb5fbc4d8355664e84384c33de5575e2efcb4e52330fcd942eaa0146c426040516102519190610c15565b60405180910390a350565b60606006805480602002602001604051908101604052809291908181526020016000905b828210156103a457838290600052602060002090600302016040518060600160405290816000820160009054906101000a900473ffffffffffffffffffffffffffffffffffffffff1673ffffffffffffffffffffffffffffffffffffffff1673ffffffffffffffffffffffffffffffffffffffff16815260200160018201805461030990610dfb565b80601f016020809104026020016040519081016040528092919081815260200182805461033590610dfb565b80156103825780601f1061035757610100808354040283529160200191610382565b820191906000526020600020905b81548152906001019060200180831161036557829003601f168201915b5050505050815260200160028201548152505081526020019060010190610280565b50505050905090565b600360003373ffffffffffffffffffffffffffffffffffffffff1673ffffffffffffffffffffffffffffffffffffffff16815260200190815260200160002060009054906101000a900460ff161561043a576040517f08c379a000000000000000000000000000000000000000000000000000000000815260040161043190610bd5565b60405180910390fd5b600180600082825461044c9190610d27565b92505081905550600660405180606001604052803373ffffffffffffffffffffffffffffffffffffffff16815260200183815260200142815250908060018154018082558091505060019003906000526020600020906003020160009091909190915060008201518160000160006101000a81548173ffffffffffffffffffffffffffffffffffffffff021916908373ffffffffffffffffffffffffffffffffffffffff160217905550602082015181600101908051906020019061051292919061076d565b506040820151816002015550506001600360003373ffffffffffffffffffffffffffffffffffffffff1673ffffffffffffffffffffffffffffffffffffffff16815260200190815260200160002060006101000a81548160ff0219169083151502179055506000600560003373ffffffffffffffffffffffffffffffffffffffff1673ffffffffffffffffffffffffffffffffffffffff168152602001908152602001600020819055503373ffffffffffffffffffffffffffffffffffffffff167fe31c1c5d2435fc0b08177399b00a58890a62dc1e316b2e750a9142d65600508e4283604051610604929190610c30565b60405180910390a250565b6106a5816040516024016106239190610b83565b6040516020818303038152906040527f41304fac000000000000000000000000000000000000000000000000000000007bffffffffffffffffffffffffffffffffffffffffffffffffffffffff19166020820180517bffffffffffffffffffffffffffffffffffffffffffffffffffffffff8381831617835250505050610744565b50565b61074082826040516024016106be929190610ba5565b6040516020818303038152906040527f9710a9d0000000000000000000000000000000000000000000000000000000007bffffffffffffffffffffffffffffffffffffffffffffffffffffffff19166020820180517bffffffffffffffffffffffffffffffffffffffffffffffffffffffff8381831617835250505050610744565b5050565b60008151905060006a636f6e736f6c652e6c6f679050602083016000808483855afa5050505050565b82805461077990610dfb565b90600052602060002090601f01602090048101928261079b57600085556107e2565b82601f106107b457805160ff19168380011785556107e2565b828001600101855582156107e2579182015b828111156107e15782518255916020019190600101906107c6565b5b5090506107ef91906107f3565b5090565b5b8082111561080c5760008160009055506001016107f4565b5090565b600061082361081e84610c91565b610c60565b90508281526020810184848401111561083b57600080fd5b610846848285610db9565b509392505050565b60008135905061085d81610ecb565b92915050565b600082601f83011261087457600080fd5b8135610884848260208601610810565b91505092915050565b60006020828403121561089f57600080fd5b60006108ad8482850161084e565b91505092915050565b6000602082840312156108c857600080fd5b600082013567ffffffffffffffff8111156108e257600080fd5b6108ee84828501610863565b91505092915050565b60006109038383610af3565b905092915050565b61091481610d7d565b82525050565b600061092582610cd1565b61092f8185610cf4565b93508360208202850161094185610cc1565b8060005b8581101561097d578484038952815161095e85826108f7565b945061096983610ce7565b925060208a01995050600181019050610945565b50829750879550505050505092915050565b600061099a82610cdc565b6109a48185610d05565b93506109b4818560208601610dc8565b6109bd81610eba565b840191505092915050565b60006109d382610cdc565b6109dd8185610d16565b93506109ed818560208601610dc8565b6109f681610eba565b840191505092915050565b6000610a0e605a83610d16565b91507f4974207365656d7320796f7527766520706f737465642061206c696e6520616c60008301527f72656164792e20576520646f6e277420646f2072657065617473207768656e2060208301527f697420636f6d657320746f207069636b207570206c696e6573210000000000006040830152606082019050919050565b6000610a9a602a83610d16565b91507f4974207365656d7320796f7527766520616c726561647920436173746564207960008301527f6f757220766f74652e21000000000000000000000000000000000000000000006020830152604082019050919050565b6000606083016000830151610b0b600086018261090b565b5060208301518482036020860152610b23828261098f565b9150506040830151610b386040860182610b43565b508091505092915050565b610b4c81610daf565b82525050565b610b5b81610daf565b82525050565b60006020820190508181036000830152610b7b818461091a565b905092915050565b60006020820190508181036000830152610b9d81846109c8565b905092915050565b60006040820190508181036000830152610bbf81856109c8565b9050610bce6020830184610b52565b9392505050565b60006020820190508181036000830152610bee81610a01565b9050919050565b60006020820190508181036000830152610c0e81610a8d565b9050919050565b6000602082019050610c2a6000830184610b52565b92915050565b6000604082019050610c456000830185610b52565b8181036020830152610c5781846109c8565b90509392505050565b6000604051905081810181811067ffffffffffffffff82111715610c8757610c86610e8b565b5b8060405250919050565b600067ffffffffffffffff821115610cac57610cab610e8b565b5b601f19601f8301169050602081019050919050565b6000819050602082019050919050565b600081519050919050565b600081519050919050565b6000602082019050919050565b600082825260208201905092915050565b600082825260208201905092915050565b600082825260208201905092915050565b6000610d3282610daf565b9150610d3d83610daf565b9250827fffffffffffffffffffffffffffffffffffffffffffffffffffffffffffffffff03821115610d7257610d71610e2d565b5b828201905092915050565b6000610d8882610d8f565b9050919050565b600073ffffffffffffffffffffffffffffffffffffffff82169050919050565b6000819050919050565b82818337600083830152505050565b60005b83811015610de6578082015181840152602081019050610dcb565b83811115610df5576000848401525b50505050565b60006002820490506001821680610e1357607f821691505b60208210811415610e2757610e26610e5c565b5b50919050565b7f4e487b7100000000000000000000000000000000000000000000000000000000600052601160045260246000fd5b7f4e487b7100000000000000000000000000000000000000000000000000000000600052602260045260246000fd5b7f4e487b7100000000000000000000000000000000000000000000000000000000600052604160045260246000fd5b6000601f19601f8301169050919050565b610ed481610d7d565b8114610edf57600080fd5b5056fea26469706673582212205421cf210d9e01b398704cf012832f37538bce5a85ef90afad1d679a34a19de964736f6c634300080000334920616d2074686520436865657379205069636b5570204c696e65732720736d61727420636f6e747261637421",
  "linkReferences": {},
  "deployedLinkReferences": {}
}