{
  "_format": "hh-sol-artifact-1",
  "contractName": "PickUpLines",
  "sourceName": "contracts/PickUpLines.sol",
  "abi": [
    {
      "inputs": [],
      "stateMutability": "payable",
      "type": "constructor"
    },
    {
      "anonymous": false,
      "inputs": [
        {
          "indexed": true,
          "internalType": "address",
          "name": "from",
          "type": "address"
        },
        {
          "indexed": false,
          "internalType": "uint256",
          "name": "timestamp",
          "type": "uint256"
        },
        {
          "indexed": false,
          "internalType": "string",
          "name": "line",
          "type": "string"
        }
      ],
      "name": "NewPickUpLine",
      "type": "event"
    },
    {
      "anonymous": false,
      "inputs": [
        {
          "indexed": true,
          "internalType": "address",
          "name": "from",
          "type": "address"
        },
        {
          "indexed": false,
          "internalType": "uint256",
          "name": "timestamp",
          "type": "uint256"
        },
        {
          "indexed": true,
          "internalType": "address",
          "name": "writer",
          "type": "address"
        }
      ],
      "name": "TransferMoney",
      "type": "event"
    },
    {
      "anonymous": false,
      "inputs": [
        {
          "indexed": true,
          "internalType": "address",
          "name": "from",
          "type": "address"
        },
        {
          "indexed": false,
          "internalType": "uint256",
          "name": "timestamp",
          "type": "uint256"
        },
        {
          "indexed": true,
          "internalType": "address",
          "name": "writer",
          "type": "address"
        },
        {
          "indexed": false,
          "internalType": "uint256",
          "name": "likes",
          "type": "uint256"
        }
      ],
      "name": "UpdateLikes",
      "type": "event"
    },
    {
      "inputs": [
        {
          "internalType": "address",
          "name": "pickUpLineWriter",
          "type": "address"
        }
      ],
      "name": "addLikes",
      "outputs": [],
      "stateMutability": "nonpayable",
      "type": "function"
    },
    {
      "inputs": [],
      "name": "checkIfUserLiked",
      "outputs": [
        {
          "internalType": "bool",
          "name": "",
          "type": "bool"
        }
      ],
      "stateMutability": "view",
      "type": "function"
    },
    {
      "inputs": [],
      "name": "checkIfUserpickedUp",
      "outputs": [
        {
          "internalType": "bool",
          "name": "",
          "type": "bool"
        }
      ],
      "stateMutability": "view",
      "type": "function"
    },
    {
      "inputs": [],
      "name": "getAllLines",
      "outputs": [
        {
          "components": [
            {
              "internalType": "address",
              "name": "writer",
              "type": "address"
            },
            {
              "internalType": "string",
              "name": "line",
              "type": "string"
            },
            {
              "internalType": "uint256",
              "name": "timestamp",
              "type": "uint256"
            }
          ],
          "internalType": "struct PickUpLines.PickUpLine[]",
          "name": "",
          "type": "tuple[]"
        }
      ],
      "stateMutability": "view",
      "type": "function"
    },
    {
      "inputs": [],
      "name": "getLinesLike",
      "outputs": [
        {
          "internalType": "address[]",
          "name": "",
          "type": "address[]"
        },
        {
          "internalType": "uint256[]",
          "name": "",
          "type": "uint256[]"
        }
      ],
      "stateMutability": "view",
      "type": "function"
    },
    {
      "inputs": [
        {
          "internalType": "string",
          "name": "_line",
          "type": "string"
        }
      ],
      "name": "newLine",
      "outputs": [],
      "stateMutability": "nonpayable",
      "type": "function"
    },
    {
      "inputs": [
        {
          "internalType": "address",
          "name": "winner",
          "type": "address"
        }
      ],
      "name": "transferPrize",
      "outputs": [],
      "stateMutability": "nonpayable",
      "type": "function"
    }
  ],
  "bytecode": "0x6080604052620000336040518060600160405280602d8152602001620018c3602d91396200005b60201b62000b4d1760201c565b60644442620000439190620001a8565b6200004f919062000245565b600081905550620002ec565b620000fb8160405160240162000072919062000168565b6040516020818303038152906040527f41304fac000000000000000000000000000000000000000000000000000000007bffffffffffffffffffffffffffffffffffffffffffffffffffffffff19166020820180517bffffffffffffffffffffffffffffffffffffffffffffffffffffffff8381831617835250505050620000fe60201b60201c565b50565b60008151905060006a636f6e736f6c652e6c6f679050602083016000808483855afa5050505050565b600062000134826200018c565b62000140818562000197565b9350620001528185602086016200020f565b6200015d81620002db565b840191505092915050565b6000602082019050818103600083015262000184818462000127565b905092915050565b600081519050919050565b600082825260208201905092915050565b6000620001b58262000205565b9150620001c28362000205565b9250827fffffffffffffffffffffffffffffffffffffffffffffffffffffffffffffffff03821115620001fa57620001f96200027d565b5b828201905092915050565b6000819050919050565b60005b838110156200022f57808201518184015260208101905062000212565b838111156200023f576000848401525b50505050565b6000620002528262000205565b91506200025f8362000205565b925082620002725762000271620002ac565b5b828206905092915050565b7f4e487b7100000000000000000000000000000000000000000000000000000000600052601160045260246000fd5b7f4e487b7100000000000000000000000000000000000000000000000000000000600052601260045260246000fd5b6000601f19601f8301169050919050565b6115c780620002fc6000396000f3fe608060405234801561001057600080fd5b506004361061007d5760003560e01c8063770b5eaf1161005b578063770b5eaf146100db57806380523a86146100f757806395a96b9014610115578063ed07cd6c146101335761007d565b806311a18b6f146100825780633f799e49146100a157806374239871146100bd575b600080fd5b61008a61014f565b6040516100989291906110fe565b60405180910390f35b6100bb60048036038101906100b69190610d2f565b610441565b005b6100c561062c565b6040516100d29190611135565b60405180910390f35b6100f560048036038101906100f09190610d58565b61077d565b005b6100ff6109c6565b60405161010c9190611157565b60405180910390f35b61011d610a2b565b60405161012a9190611157565b60405180910390f35b61014d60048036038101906101489190610d2f565b610a90565b005b606080600060058054905067ffffffffffffffff811115610199577f4e487b7100000000000000000000000000000000000000000000000000000000600052604160045260246000fd5b6040519080825280602002602001820160405280156101c75781602001602082028036833780820191505090505b509050600060058054905067ffffffffffffffff811115610211577f4e487b7100000000000000000000000000000000000000000000000000000000600052604160045260246000fd5b60405190808252806020026020018201604052801561023f5781602001602082028036833780820191505090505b50905060005b600580549050811015610434576005818154811061028c577f4e487b7100000000000000000000000000000000000000000000000000000000600052603260045260246000fd5b906000526020600020906003020160000160009054906101000a900473ffffffffffffffffffffffffffffffffffffffff168282815181106102f7577f4e487b7100000000000000000000000000000000000000000000000000000000600052603260045260246000fd5b602002602001019073ffffffffffffffffffffffffffffffffffffffff16908173ffffffffffffffffffffffffffffffffffffffff1681525050600460006005838154811061036f577f4e487b7100000000000000000000000000000000000000000000000000000000600052603260045260246000fd5b906000526020600020906003020160000160009054906101000a900473ffffffffffffffffffffffffffffffffffffffff1673ffffffffffffffffffffffffffffffffffffffff1673ffffffffffffffffffffffffffffffffffffffff16815260200190815260200160002054838281518110610415577f4e487b7100000000000000000000000000000000000000000000000000000000600052603260045260246000fd5b602002602001018181525050808061042c90611493565b915050610245565b5080829350935050509091565b600360003373ffffffffffffffffffffffffffffffffffffffff1673ffffffffffffffffffffffffffffffffffffffff16815260200190815260200160002060009054906101000a900460ff16156104ce576040517f08c379a00000000000000000000000000000000000000000000000000000000081526004016104c5906111b4565b60405180910390fd5b6001600460008373ffffffffffffffffffffffffffffffffffffffff1673ffffffffffffffffffffffffffffffffffffffff168152602001908152602001600020600082825461051e9190611381565b925050819055506000600460008373ffffffffffffffffffffffffffffffffffffffff1673ffffffffffffffffffffffffffffffffffffffff1681526020019081526020016000205490506001600360003373ffffffffffffffffffffffffffffffffffffffff1673ffffffffffffffffffffffffffffffffffffffff16815260200190815260200160002060006101000a81548160ff0219169083151502179055508173ffffffffffffffffffffffffffffffffffffffff163373ffffffffffffffffffffffffffffffffffffffff167ff1c588c3a74b61077eb072e71789725c48c7f93d0332b8b79ff9ea6b7d744370428460405161062092919061121f565b60405180910390a35050565b60606005805480602002602001604051908101604052809291908181526020016000905b8282101561077457838290600052602060002090600302016040518060600160405290816000820160009054906101000a900473ffffffffffffffffffffffffffffffffffffffff1673ffffffffffffffffffffffffffffffffffffffff1673ffffffffffffffffffffffffffffffffffffffff1681526020016001820180546106d990611461565b80601f016020809104026020016040519081016040528092919081815260200182805461070590611461565b80156107525780601f1061072757610100808354040283529160200191610752565b820191906000526020600020905b81548152906001019060200180831161073557829003601f168201915b5050505050815260200160028201548152505081526020019060010190610650565b50505050905090565b600260003373ffffffffffffffffffffffffffffffffffffffff1673ffffffffffffffffffffffffffffffffffffffff16815260200190815260200160002060009054906101000a900460ff161561080a576040517f08c379a000000000000000000000000000000000000000000000000000000000815260040161080190611194565b60405180910390fd5b600560405180606001604052803373ffffffffffffffffffffffffffffffffffffffff16815260200183815260200142815250908060018154018082558091505060019003906000526020600020906003020160009091909190915060008201518160000160006101000a81548173ffffffffffffffffffffffffffffffffffffffff021916908373ffffffffffffffffffffffffffffffffffffffff16021790555060208201518160010190805190602001906108c9929190610c0f565b506040820151816002015550506001600260003373ffffffffffffffffffffffffffffffffffffffff1673ffffffffffffffffffffffffffffffffffffffff16815260200190815260200160002060006101000a81548160ff0219169083151502179055506000600460003373ffffffffffffffffffffffffffffffffffffffff1673ffffffffffffffffffffffffffffffffffffffff168152602001908152602001600020819055503373ffffffffffffffffffffffffffffffffffffffff167fe31c1c5d2435fc0b08177399b00a58890a62dc1e316b2e750a9142d65600508e42836040516109bb9291906111ef565b60405180910390a250565b60008060009050600260003373ffffffffffffffffffffffffffffffffffffffff1673ffffffffffffffffffffffffffffffffffffffff16815260200190815260200160002060009054906101000a900460ff1615610a2457600190505b8091505090565b60008060009050600360003373ffffffffffffffffffffffffffffffffffffffff1673ffffffffffffffffffffffffffffffffffffffff16815260200190815260200160002060009054906101000a900460ff1615610a8957600190505b8091505090565b60008190508073ffffffffffffffffffffffffffffffffffffffff166108fc670de0b6b3a76400009081150290604051600060405180830381858888f19350505050158015610ae3573d6000803e3d6000fd5b508173ffffffffffffffffffffffffffffffffffffffff163373ffffffffffffffffffffffffffffffffffffffff167fed7d0a91587e7e60cce787395a2e4450527cfc569ac35a99caf36ffa2bf3a7dd42604051610b4191906111d4565b60405180910390a35050565b610be381604051602401610b619190611172565b6040516020818303038152906040527f41304fac000000000000000000000000000000000000000000000000000000007bffffffffffffffffffffffffffffffffffffffffffffffffffffffff19166020820180517bffffffffffffffffffffffffffffffffffffffffffffffffffffffff8381831617835250505050610be6565b50565b60008151905060006a636f6e736f6c652e6c6f679050602083016000808483855afa5050505050565b828054610c1b90611461565b90600052602060002090601f016020900481019282610c3d5760008555610c84565b82601f10610c5657805160ff1916838001178555610c84565b82800160010185558215610c84579182015b82811115610c83578251825591602001919060010190610c68565b5b509050610c919190610c95565b5090565b5b80821115610cae576000816000905550600101610c96565b5090565b6000610cc5610cc084611279565b611248565b905082815260208101848484011115610cdd57600080fd5b610ce884828561141f565b509392505050565b600081359050610cff8161157a565b92915050565b600082601f830112610d1657600080fd5b8135610d26848260208601610cb2565b91505092915050565b600060208284031215610d4157600080fd5b6000610d4f84828501610cf0565b91505092915050565b600060208284031215610d6a57600080fd5b600082013567ffffffffffffffff811115610d8457600080fd5b610d9084828501610d05565b91505092915050565b6000610da58383610ddd565b60208301905092915050565b6000610dbd8383611090565b905092915050565b6000610dd183836110e0565b60208301905092915050565b610de6816113d7565b82525050565b6000610df7826112d9565b610e01818561132c565b9350610e0c836112a9565b8060005b83811015610e3d578151610e248882610d99565b9750610e2f83611305565b925050600181019050610e10565b5085935050505092915050565b6000610e55826112e4565b610e5f818561133d565b935083602082028501610e71856112b9565b8060005b85811015610ead5784840389528151610e8e8582610db1565b9450610e9983611312565b925060208a01995050600181019050610e75565b50829750879550505050505092915050565b6000610eca826112ef565b610ed4818561134e565b9350610edf836112c9565b8060005b83811015610f10578151610ef78882610dc5565b9750610f028361131f565b925050600181019050610ee3565b5085935050505092915050565b610f26816113e9565b82525050565b6000610f37826112fa565b610f41818561135f565b9350610f5181856020860161142e565b610f5a81611569565b840191505092915050565b6000610f70826112fa565b610f7a8185611370565b9350610f8a81856020860161142e565b610f9381611569565b840191505092915050565b6000610fab605a83611370565b91507f4974207365656d7320796f7527766520706f737465642061206c696e6520616c60008301527f72656164792e20576520646f6e277420646f2072657065617473207768656e2060208301527f697420636f6d657320746f207069636b207570206c696e6573210000000000006040830152606082019050919050565b6000611037602a83611370565b91507f4974207365656d7320796f7527766520616c726561647920436173746564207960008301527f6f757220766f74652e21000000000000000000000000000000000000000000006020830152604082019050919050565b60006060830160008301516110a86000860182610ddd565b50602083015184820360208601526110c08282610f2c565b91505060408301516110d560408601826110e0565b508091505092915050565b6110e981611415565b82525050565b6110f881611415565b82525050565b600060408201905081810360008301526111188185610dec565b9050818103602083015261112c8184610ebf565b90509392505050565b6000602082019050818103600083015261114f8184610e4a565b905092915050565b600060208201905061116c6000830184610f1d565b92915050565b6000602082019050818103600083015261118c8184610f65565b905092915050565b600060208201905081810360008301526111ad81610f9e565b9050919050565b600060208201905081810360008301526111cd8161102a565b9050919050565b60006020820190506111e960008301846110ef565b92915050565b600060408201905061120460008301856110ef565b81810360208301526112168184610f65565b90509392505050565b600060408201905061123460008301856110ef565b61124160208301846110ef565b9392505050565b6000604051905081810181811067ffffffffffffffff8211171561126f5761126e61153a565b5b8060405250919050565b600067ffffffffffffffff8211156112945761129361153a565b5b601f19601f8301169050602081019050919050565b6000819050602082019050919050565b6000819050602082019050919050565b6000819050602082019050919050565b600081519050919050565b600081519050919050565b600081519050919050565b600081519050919050565b6000602082019050919050565b6000602082019050919050565b6000602082019050919050565b600082825260208201905092915050565b600082825260208201905092915050565b600082825260208201905092915050565b600082825260208201905092915050565b600082825260208201905092915050565b600061138c82611415565b915061139783611415565b9250827fffffffffffffffffffffffffffffffffffffffffffffffffffffffffffffffff038211156113cc576113cb6114dc565b5b828201905092915050565b60006113e2826113f5565b9050919050565b60008115159050919050565b600073ffffffffffffffffffffffffffffffffffffffff82169050919050565b6000819050919050565b82818337600083830152505050565b60005b8381101561144c578082015181840152602081019050611431565b8381111561145b576000848401525b50505050565b6000600282049050600182168061147957607f821691505b6020821081141561148d5761148c61150b565b5b50919050565b600061149e82611415565b91507fffffffffffffffffffffffffffffffffffffffffffffffffffffffffffffffff8214156114d1576114d06114dc565b5b600182019050919050565b7f4e487b7100000000000000000000000000000000000000000000000000000000600052601160045260246000fd5b7f4e487b7100000000000000000000000000000000000000000000000000000000600052602260045260246000fd5b7f4e487b7100000000000000000000000000000000000000000000000000000000600052604160045260246000fd5b6000601f19601f8301169050919050565b611583816113d7565b811461158e57600080fd5b5056fea2646970667358221220d9011736096bc7f6ef276116e868728b4e1905627b8aa36003dc084b9c57061664736f6c634300080000334920616d2074686520436865657379205069636b5570204c696e65732720736d61727420636f6e747261637421",
  "linkReferences": {},
  "deployedLinkReferences": {}
}